{
  "contractName": "TinyBlock",
  "abi": [
    {
      "anonymous": false,
      "inputs": [
        {
          "indexed": true,
          "internalType": "address",
          "name": "_user",
          "type": "address"
        },
        {
          "indexed": false,
          "internalType": "string",
          "name": "_code",
          "type": "string"
        },
        {
          "indexed": false,
          "internalType": "string",
          "name": "_url",
          "type": "string"
        }
      ],
      "name": "Add",
      "type": "event"
    },
    {
      "inputs": [
        {
          "internalType": "string",
          "name": "",
          "type": "string"
        }
      ],
      "name": "codeToUrlIndex",
      "outputs": [
        {
          "internalType": "uint256",
          "name": "",
          "type": "uint256"
        }
      ],
      "stateMutability": "view",
      "type": "function",
      "constant": true
    },
    {
      "inputs": [
        {
          "internalType": "uint256",
          "name": "",
          "type": "uint256"
        }
      ],
      "name": "urls",
      "outputs": [
        {
          "internalType": "address",
          "name": "owner",
          "type": "address"
        },
        {
          "internalType": "string",
          "name": "code",
          "type": "string"
        },
        {
          "internalType": "string",
          "name": "url",
          "type": "string"
        }
      ],
      "stateMutability": "view",
      "type": "function",
      "constant": true
    },
    {
      "inputs": [
        {
          "internalType": "address",
          "name": "",
          "type": "address"
        },
        {
          "internalType": "uint256",
          "name": "",
          "type": "uint256"
        }
      ],
      "name": "userUrlIndexes",
      "outputs": [
        {
          "internalType": "uint256",
          "name": "",
          "type": "uint256"
        }
      ],
      "stateMutability": "view",
      "type": "function",
      "constant": true
    },
    {
      "inputs": [
        {
          "internalType": "string",
          "name": "url",
          "type": "string"
        }
      ],
      "name": "add",
      "outputs": [],
      "stateMutability": "nonpayable",
      "type": "function"
    },
    {
      "inputs": [
        {
          "internalType": "string",
          "name": "code",
          "type": "string"
        }
      ],
      "name": "getUrlFromCode",
      "outputs": [
        {
          "components": [
            {
              "internalType": "address",
              "name": "owner",
              "type": "address"
            },
            {
              "internalType": "string",
              "name": "code",
              "type": "string"
            },
            {
              "internalType": "string",
              "name": "url",
              "type": "string"
            }
          ],
          "internalType": "struct TinyBlock.TinyUrl",
          "name": "",
          "type": "tuple"
        }
      ],
      "stateMutability": "view",
      "type": "function",
      "constant": true
    },
    {
      "inputs": [],
      "name": "length",
      "outputs": [
        {
          "internalType": "uint256",
          "name": "",
          "type": "uint256"
        }
      ],
      "stateMutability": "view",
      "type": "function",
      "constant": true
    },
    {
      "inputs": [
        {
          "internalType": "uint256",
          "name": "id",
          "type": "uint256"
        }
      ],
      "name": "getUrlFromIndex",
      "outputs": [
        {
          "components": [
            {
              "internalType": "address",
              "name": "owner",
              "type": "address"
            },
            {
              "internalType": "string",
              "name": "code",
              "type": "string"
            },
            {
              "internalType": "string",
              "name": "url",
              "type": "string"
            }
          ],
          "internalType": "struct TinyBlock.TinyUrl",
          "name": "",
          "type": "tuple"
        }
      ],
      "stateMutability": "view",
      "type": "function",
      "constant": true
    },
    {
      "inputs": [
        {
          "internalType": "address",
          "name": "user",
          "type": "address"
        }
      ],
      "name": "userUrlsLength",
      "outputs": [
        {
          "internalType": "uint256",
          "name": "",
          "type": "uint256"
        }
      ],
      "stateMutability": "view",
      "type": "function",
      "constant": true
    },
    {
      "inputs": [
        {
          "internalType": "address",
          "name": "user",
          "type": "address"
        },
        {
          "internalType": "uint256",
          "name": "index",
          "type": "uint256"
        }
      ],
      "name": "getUserUrl",
      "outputs": [
        {
          "components": [
            {
              "internalType": "address",
              "name": "owner",
              "type": "address"
            },
            {
              "internalType": "string",
              "name": "code",
              "type": "string"
            },
            {
              "internalType": "string",
              "name": "url",
              "type": "string"
            }
          ],
          "internalType": "struct TinyBlock.TinyUrl",
          "name": "",
          "type": "tuple"
        }
      ],
      "stateMutability": "view",
      "type": "function",
      "constant": true
    },
    {
      "inputs": [
        {
          "internalType": "address",
          "name": "user",
          "type": "address"
        }
      ],
      "name": "getAllUserUrls",
      "outputs": [
        {
          "components": [
            {
              "internalType": "address",
              "name": "owner",
              "type": "address"
            },
            {
              "internalType": "string",
              "name": "code",
              "type": "string"
            },
            {
              "internalType": "string",
              "name": "url",
              "type": "string"
            }
          ],
          "internalType": "struct TinyBlock.TinyUrl[]",
          "name": "",
          "type": "tuple[]"
        }
      ],
      "stateMutability": "view",
      "type": "function",
      "constant": true
    }
  ],
  "bytecode": "0x60e0604052603e6080818152906200153560a0398051620000299160039160209091019062000063565b50600360049080546200003c906200018d565b62000049929190620000f2565b5060006005553480156200005c57600080fd5b50620001ca565b82805462000071906200018d565b90600052602060002090601f016020900481019282620000955760008555620000e0565b82601f10620000b057805160ff1916838001178555620000e0565b82800160010185558215620000e0579182015b82811115620000e0578251825591602001919060010190620000c3565b50620000ee92915062000176565b5090565b82805462000100906200018d565b90600052602060002090601f016020900481019282620001245760008555620000e0565b82601f10620001375780548555620000e0565b82800160010185558215620000e057600052602060002091601f016020900482015b82811115620000e057825482559160010191906001019062000159565b5b80821115620000ee576000815560010162000177565b600181811c90821680620001a257607f821691505b60208210811415620001c457634e487b7160e01b600052602260045260246000fd5b50919050565b61135b80620001da6000396000f3fe608060405234801561001057600080fd5b506004361061009e5760003560e01c806392d915f91161006657806392d915f914610158578063b0c8f9dc14610178578063ccd167d01461018d578063d917a922146101a0578063f2888ad4146101b357600080fd5b806303105739146100a3578063130c3f07146100cc5780631f7b6d32146101055780634367ab8d1461010d578063796676be14610136575b600080fd5b6100b66100b1366004610f6f565b6101c6565b6040516100c391906110c5565b60405180910390f35b6100f76100da366004610f6f565b805160208183018101805160008252928201919093012091525481565b6040519081526020016100c3565b6002546100f7565b6100f761011b3660046110fb565b6001600160a01b031660009081526001602052604090205490565b610149610144366004611116565b6103bb565b6040516100c39392919061112f565b61016b6101663660046110fb565b61050b565b6040516100c3919061116f565b61018b610186366004610f6f565b61075c565b005b6100b661019b366004611116565b6108d2565b6100b66101ae3660046111d1565b610a9d565b6100f76101c13660046111d1565b610d2e565b6101ce610e96565b600080836040516101df91906111fb565b9081526040519081900360200190205460025490915081108015610201575060015b6102485760405162461bcd60e51b815260206004820152601360248201527210dbd91948191bd95cc81b9bdd08195e1a5cdd606a1b60448201526064015b60405180910390fd5b60006002828154811061025d5761025d611217565b6000918252602091829020604080516060810190915260039092020180546001600160a01b03168252600181018054929391929184019161029d9061122d565b80601f01602080910402602001604051908101604052809291908181526020018280546102c99061122d565b80156103165780601f106102eb57610100808354040283529160200191610316565b820191906000526020600020905b8154815290600101906020018083116102f957829003601f168201915b5050505050815260200160028201805461032f9061122d565b80601f016020809104026020016040519081016040528092919081815260200182805461035b9061122d565b80156103a85780601f1061037d576101008083540402835291602001916103a8565b820191906000526020600020905b81548152906001019060200180831161038b57829003601f168201915b5050509190925250919695505050505050565b600281815481106103cb57600080fd5b6000918252602090912060039091020180546001820180546001600160a01b039092169350906103fa9061122d565b80601f01602080910402602001604051908101604052809291908181526020018280546104269061122d565b80156104735780601f1061044857610100808354040283529160200191610473565b820191906000526020600020905b81548152906001019060200180831161045657829003601f168201915b5050505050908060020180546104889061122d565b80601f01602080910402602001604051908101604052809291908181526020018280546104b49061122d565b80156105015780601f106104d657610100808354040283529160200191610501565b820191906000526020600020905b8154815290600101906020018083116104e457829003601f168201915b5050505050905083565b6001600160a01b0381166000908152600160205260408120546060918167ffffffffffffffff81111561054057610540610f59565b60405190808252806020026020018201604052801561057957816020015b610566610e96565b81526020019060019003908161055e5790505b50905060005b82811015610754576001600160a01b0385166000908152600160205260409020805460029190839081106105b5576105b5611217565b9060005260206000200154815481106105d0576105d0611217565b6000918252602091829020604080516060810190915260039092020180546001600160a01b0316825260018101805492939192918401916106109061122d565b80601f016020809104026020016040519081016040528092919081815260200182805461063c9061122d565b80156106895780601f1061065e57610100808354040283529160200191610689565b820191906000526020600020905b81548152906001019060200180831161066c57829003601f168201915b505050505081526020016002820180546106a29061122d565b80601f01602080910402602001604051908101604052809291908181526020018280546106ce9061122d565b801561071b5780601f106106f05761010080835404028352916020019161071b565b820191906000526020600020905b8154815290600101906020018083116106fe57829003601f168201915b50505050508152505082828151811061073657610736611217565b6020026020010181905250808061074c90611268565b91505061057f565b509392505050565b6000610766610d5f565b6040805160608101825233815260208082018481529282018690526002805460018101825560009190915282517f405787fa12a823e0f2b7631cc41b3ba8828b3321ca811111fa75cd3aa3bb5ace6003830290810180546001600160a01b0319166001600160a01b03909316929092178255945180519697509395919486949193610817937f405787fa12a823e0f2b7631cc41b3ba8828b3321ca811111fa75cd3aa3bb5acf909201920190610ec0565b5060408201518051610833916002840191602090910190610ec0565b5050508060008460405161084791906111fb565b90815260408051602092819003830190209290925533600090815260018083529281208054938401815581529081209091018290556005805490919061088c90611268565b9091555060405133907f3109015f676a65f2cfa0d3f348e787f391dba12b29b66141cb61295da1a984b8906108c49086908890611291565b60405180910390a250505050565b6108da610e96565b600254821080156108e9575060015b61092b5760405162461bcd60e51b815260206004820152601360248201527210dbd91948191bd95cc81b9bdd08195e1a5cdd606a1b604482015260640161023f565b60006002838154811061094057610940611217565b6000918252602091829020604080516060810190915260039092020180546001600160a01b0316825260018101805492939192918401916109809061122d565b80601f01602080910402602001604051908101604052809291908181526020018280546109ac9061122d565b80156109f95780601f106109ce576101008083540402835291602001916109f9565b820191906000526020600020905b8154815290600101906020018083116109dc57829003601f168201915b50505050508152602001600282018054610a129061122d565b80601f0160208091040260200160405190810160405280929190818152602001828054610a3e9061122d565b8015610a8b5780601f10610a6057610100808354040283529160200191610a8b565b820191906000526020600020905b815481529060010190602001808311610a6e57829003601f168201915b50505091909252509195945050505050565b610aa5610e96565b6001600160a01b038316600090815260016020908152604080832080548251818502810185019093528083529192909190830182828015610b0557602002820191906000526020600020905b815481526020019060010190808311610af1575b505050505090506000815111610b505760405162461bcd60e51b815260206004820152601060248201526f5573657220686173206e6f2075726c7360801b604482015260640161023f565b805183108015610b5e575060015b610b9f5760405162461bcd60e51b8152602060048201526012602482015271496e646578206f7574206f662072616e676560701b604482015260640161023f565b6000818481518110610bb357610bb3611217565b6020026020010151905060028181548110610bd057610bd0611217565b6000918252602091829020604080516060810190915260039092020180546001600160a01b031682526001810180549293919291840191610c109061122d565b80601f0160208091040260200160405190810160405280929190818152602001828054610c3c9061122d565b8015610c895780601f10610c5e57610100808354040283529160200191610c89565b820191906000526020600020905b815481529060010190602001808311610c6c57829003601f168201915b50505050508152602001600282018054610ca29061122d565b80601f0160208091040260200160405190810160405280929190818152602001828054610cce9061122d565b8015610d1b5780601f10610cf057610100808354040283529160200191610d1b565b820191906000526020600020905b815481529060010190602001808311610cfe57829003601f168201915b5050505050815250509250505092915050565b60016020528160005260406000208181548110610d4a57600080fd5b90600052602060002001600091509150505481565b606060055460001415610de657600460008154610d7b9061122d565b8110610d8957610d89611217565b815460011615610da85790600052602060002090602091828204019190065b9054901a600160f81b02604051602001610dd291906001600160f81b031991909116815260010190565b604051602081830303815290604052905090565b604080516020810190915260008152600554603e91905b8015610e8f576000610e0f84836112cc565b905060048160ff168154610e229061122d565b8110610e3057610e30611217565b815460011615610e4f5790600052602060002090602091828204019190065b9054901a600160f81b0283604051602001610e6b9291906112e0565b60408051601f198184030181529190529250610e878483611311565b915050610dfd565b5092915050565b604051806060016040528060006001600160a01b0316815260200160608152602001606081525090565b828054610ecc9061122d565b90600052602060002090601f016020900481019282610eee5760008555610f34565b82601f10610f0757805160ff1916838001178555610f34565b82800160010185558215610f34579182015b82811115610f34578251825591602001919060010190610f19565b50610f40929150610f44565b5090565b5b80821115610f405760008155600101610f45565b634e487b7160e01b600052604160045260246000fd5b600060208284031215610f8157600080fd5b813567ffffffffffffffff80821115610f9957600080fd5b818401915084601f830112610fad57600080fd5b813581811115610fbf57610fbf610f59565b604051601f8201601f19908116603f01168101908382118183101715610fe757610fe7610f59565b8160405282815287602084870101111561100057600080fd5b826020860160208301376000928101602001929092525095945050505050565b60005b8381101561103b578181015183820152602001611023565b8381111561104a576000848401525b50505050565b60008151808452611068816020860160208601611020565b601f01601f19169290920160200192915050565b60018060a01b03815116825260006020820151606060208501526110a36060850182611050565b9050604083015184820360408601526110bc8282611050565b95945050505050565b6020815260006110d8602083018461107c565b9392505050565b80356001600160a01b03811681146110f657600080fd5b919050565b60006020828403121561110d57600080fd5b6110d8826110df565b60006020828403121561112857600080fd5b5035919050565b6001600160a01b038416815260606020820181905260009061115390830185611050565b82810360408401526111658185611050565b9695505050505050565b6000602080830181845280855180835260408601915060408160051b870101925083870160005b828110156111c457603f198886030184526111b285835161107c565b94509285019290850190600101611196565b5092979650505050505050565b600080604083850312156111e457600080fd5b6111ed836110df565b946020939093013593505050565b6000825161120d818460208701611020565b9190910192915050565b634e487b7160e01b600052603260045260246000fd5b600181811c9082168061124157607f821691505b6020821081141561126257634e487b7160e01b600052602260045260246000fd5b50919050565b600060001982141561128a57634e487b7160e01b600052601160045260246000fd5b5060010190565b6040815260006112a46040830185611050565b82810360208401526110bc8185611050565b634e487b7160e01b600052601260045260246000fd5b6000826112db576112db6112b6565b500690565b6001600160f81b0319831681528151600090611303816001850160208701611020565b919091016001019392505050565b600082611320576113206112b6565b50049056fea26469706673582212208f36b676495cb6a25cb5dc9503d75034db59ab3d7dc5706e5d793556a4b0154c64736f6c634300080c00336162636465666768696a6b6c6d6e6f707172737475767778797a4142434445464748494a4b4c4d4e4f505152535455565758595a30313233343536373839",
  "immutableReferences": {},
  "source": "// SPDX-License-Identifier: MIT\npragma solidity ^0.8.0;\n\ncontract TinyBlock {\n\n  struct TinyUrl {\n    address owner;\n    string code;\n    string url;\n  }\n\n  mapping(string => uint) public codeToUrlIndex;\n  mapping(address => uint[]) public userUrlIndexes;\n  TinyUrl[] public urls;\n\n  string private characters = \"abcdefghijklmnopqrstuvwxyzABCDEFGHIJKLMNOPQRSTUVWXYZ0123456789\";\n  bytes private charactersBytes = bytes(characters);\n  uint private currentIndex = 0;\n\n  event Add(address indexed _user, string _code, string _url);\n\n  function add(string memory url) external {\n    string memory code = _genNextCode();\n    TinyUrl memory tinyurl = TinyUrl({\n      url: url,\n      code: code,\n      owner: msg.sender\n    });\n    uint curIndex = urls.length;\n    urls.push(tinyurl);\n    codeToUrlIndex[code] = curIndex;\n    userUrlIndexes[msg.sender].push(curIndex);\n    ++currentIndex;\n    emit Add(msg.sender, code, url);\n  }\n\n  function getUrlFromCode(string memory code) external view returns (TinyUrl memory) {\n    uint id = codeToUrlIndex[code];\n    require(id < urls.length && id >= 0, \"Code does not exist\");\n    TinyUrl memory url = urls[id];\n    return url;\n  }\n\n  function length() public view returns (uint) {\n    return urls.length;\n  }\n\n  function getUrlFromIndex(uint id) external view returns (TinyUrl memory) {\n    require(id < urls.length && id >= 0, \"Code does not exist\");\n    TinyUrl memory url = urls[id];\n    return url;\n  }\n\n  function userUrlsLength(address user) external view returns (uint) {\n    return userUrlIndexes[user].length;\n  }\n\n  function getUserUrl(address user, uint index) external view returns (TinyUrl memory) {\n    uint[] memory ids = userUrlIndexes[user];\n    require(ids.length > 0, \"User has no urls\");\n    require(index < ids.length && index >= 0, \"Index out of range\");\n    uint id = ids[index];\n    return urls[id];\n  }\n\n  function getAllUserUrls(address user) external view returns (TinyUrl[] memory) {\n    uint len = userUrlIndexes[user].length;\n    TinyUrl[] memory userUrls = new TinyUrl[](len);\n    for (uint i = 0; i < len; i++) {\n      userUrls[i] = urls[userUrlIndexes[user][i]];\n    }\n    return userUrls;\n  }\n\n  function _genNextCode() internal view returns (string memory) {\n    /*\n    a-z = 26\n    A-Z = 26\n    0-9 = 10\n    --------\n          62\n    */\n    if (currentIndex == 0) {\n      return string(abi.encodePacked(charactersBytes[0]));\n    }\n    uint base = 62;\n    string memory result = \"\";\n    uint value = currentIndex;\n    while (value > 0) {\n      uint8 remainder = uint8(value % base);\n      result = string(abi.encodePacked(charactersBytes[remainder], result));\n      value /= base;\n    }\n    return result;\n  }\n}\n",
  "sourcePath": "C:\\Users\\surge\\Desktop\\dapp-projects\\tinyblock\\contracts\\TinyBlock.sol",
  "compiler": {
    "name": "solc",
    "version": "0.8.12+commit.f00d7308.Emscripten.clang"
  },
  "schemaVersion": "3.4.16",
  "updatedAt": "2023-09-20T20:36:55.757Z",
  "networkType": "ethereum",
  "devdoc": {
    "kind": "dev",
    "methods": {},
    "version": 1
  },
  "userdoc": {
    "kind": "user",
    "methods": {},
    "version": 1
  }
}